:020000040800F2
:1000000068060020350200083D0200083F02000893
:1000100041020008430200084502000800000000F9
:10002000000000000000000000000000470200087F
:1000300049020008000000004B0200084D020008C1
:100040004F0200084F0200084F0200084F0200084C
:100050004F0200084F0200084F0200084F0200083C
:100060004F0200084F0200084F0200084F0200082C
:100070004F0200084F0200084F0200084F0200081C
:100080004F0200084F0200084F0200084F0200080C
:100090004F0200084F0200084F020008F10200085A
:1000A0004F0200084F0200084F0200084F020008EC
:1000B0004F0200084F0200084F0200084F020008DC
:1000C0004F0200084F0200084F0200084F020008CC
:1000D0004F0200084F0200084F0200084F020008BC
:1000E0004F0200084F0200084F0200084F020008AC
:1000F0004F0200084F0200084F0200084F0200089C
:100100004F02000800000000000000004F0200083D
:100110004F0200084F0200084F0200084F0200087B
:100120004F0200084F0200084F0200084F0200086B
:100130004F0200084F02000800000000000000000D
:100140004F0200084F0200084F02000800000000A4
:10015000000000000000000000000000000000009F
:100160004F0200084F0200084F0200084F0200082B
:100170004F0200084F0200084F0200084F0200081B
:100180004F0200084F0200080000000000000000BD
:100190004F02000800F002F800F03CF80AA090E8D6
:1001A000000C82448344AAF10107DA4501D100F032
:1001B00031F8AFF2090EBAE80F0013F0010F18BFC3
:1001C000FB1A43F00103184708040000280400004C
:1001D000103A24BF78C878C1FAD8520724BF30C873
:1001E00030C144BF04680C60704700000023002445
:1001F00000250026103A28BF78C1FBD8520728BF37
:1002000030C148BF0B6070471FB500F0DCF91FBD5F
:1002100010B510BD00F031F81146FFF7F5FF00F002
:10022000C9F900F04FF803B4FFF7F2FF03BC00F088
:1002300057F800000948804709480047FEE7FEE7F5
:10024000FEE7FEE7FEE7FEE7FEE7FEE7FEE7FEE786
:1002500004480549054A064B704700004D04000854
:100260009501000868000020680600206802002050
:1002700068020020704770477047754600F02CF800
:10028000AE4605006946534620F00700854618B083
:1002900020B5FFF7DDFFBDE820404FF000064FF02E
:1002A00000074FF000084FF0000B21F00701AC46AB
:1002B000ACE8C009ACE8C009ACE8C009ACE8C009CA
:1002C0008D46704710B50446AFF300802046BDE868
:1002D0001040FFF7A8BF000000487047040000204E
:1002E00001491820ABBEFEE726000200704700005F
:1002F00010B50848006800F04000402808D10549C2
:10030000086000F06FF804480078401C024908704B
:1003100010BD0000140401400000002010B52B485F
:10032000406940F4002029494861294800686FF37A
:100330000D002749086026480C30006840F48050C2
:1003400023490C3108602148806940F001001F49B1
:1003500088612048C06820F470611E48C160C06890
:1003600040F400711B48C1601B48006840F0400029
:100370001949086018480830006840F040001649E4
:1003800008310860172000280DDB00BF00BF00F017
:100390001F02012191404209920002F1E022C2F8BD
:1003A000001100BF00BF00BF17200021002804DBA0
:1003B0000A07130E094A135406E00A07140E084AE6
:1003C00000F00F031B1FD45400BF10BD00100240EB
:1003D00000080048000001400004014000E400E083
:1003E00018ED00E04FF09040406980F040004FF081
:1003F00090414861704700001348406940F4003064
:10040000114948614FF09040006820F440604FF07F
:10041000904108600846006840F440600860084663
:10042000806820F4406088600846806840F440603E
:1004300088600846406820F4806048600846C068CC
:1004400040F48060C860704700100240194800689E
:1004500040F47000174908601748006840F0010038
:100460001549086008464068144908401249486028
:1004700008460068124908400F49086008460068AD
:1004800020F4802008600846406820F4FE004860A0
:100490000846C06A20F00F00C8620846006B094990
:1004A00008400549086300208860C8030149803975
:1004B0000860704788ED00E0001002400CC07FF833
:1004C000FFFFF6FECCFC00FF3848006820F0070074
:1004D000364908600846006840F004000860344867
:1004E000006840F480303249086000BF304800683E
:1004F00000F400300028F9D02D48006820F080700A
:100500002B49086000BF2A48006800F00070B0F175
:10051000007FF8D02648406820F4C0302449486065
:100520000846406840F4803048600846406840F023
:10053000004048600846406820F4701040F4E01025
:1005400048600846006840F08070086000BF1848A6
:10055000006800F000700028F9D01548406820F0CD
:100560000300134948600846406840F002004860B4
:1005700000BF0F48406800F00C000828F9D10C4873
:10058000406820F0F0000A4948600846406820F4BE
:10059000605048600846406820F4E06048600846C3
:1005A000406840F4806048607047000000200240CE
:1005B0000010024010B5FFF787FFFFF71DFFFFF7A0
:1005C000ADFE002010BD4FF04070E1EE100A704704
:1005D000F00500080000002004000000D001000821
:1005E000F40500080400002064060000EC01000887
:0405F0000000000007
:040000050800019559
:00000001FF
