:020000040800F2
:10000000680600202902000865020008670200084F
:10001000690200086B0200086D0200080000000081
:100020000000000000000000000000006F02000857
:100030007102000800000000730200087502000849
:1000400077020008770200087702000877020008AC
:10005000770200087702000877020008770200089C
:10006000770200087702000877020008770200088C
:10007000770200087702000877020008770200087C
:10008000770200087702000877020008770200086C
:10009000770200087702000877020008770200085C
:1000A000770200087702000877020008770200084C
:1000B000770200087702000877020008770200083C
:1000C000770200087702000877020008770200082C
:1000D000770200087702000877020008770200081C
:1000E000770200087702000877020008770200080C
:1000F00077020008770200087702000877020008FC
:1001000077020008770200087702000877020008EB
:1001100077020008770200087702000877020008DB
:1001200077020008770200087702000877020008CB
:1001300077020008770200087702000877020008BB
:1001400077020008770200087702000877020008AB
:10015000770200087702000877020008770200089B
:10016000770200087702000877020008770200088B
:1001700077020008770200087702000800000000FC
:10018000770200087702000800F002F800F03CF85F
:100190000AA090E8000C82448344AAF10107DA45E2
:1001A00001D100F031F8AFF2090EBAE80F0013F0F8
:1001B000010F18BFFB1A43F0010318476403000046
:1001C00084030000103A24BF78C878C1FAD85207D7
:1001D00024BF30C830C144BF04680C6070470000C1
:1001E0000023002400250026103A28BF78C1FBD840
:1001F000520728BF30C148BF0B6070471FB500F0E1
:1002000089F91FBD10B510BD00F053F81146FFF776
:10021000F5FF00F06BF900F071F803B4FFF7F2FF9F
:1002200003BC00F079F8000016481749174B9942B3
:100230003CBF50F8042B41F8042BF8D314494FF07D
:1002400000028B4238BF43F8042BFAD3DFF8440096
:10025000016841F470010160BFF34F8FBFF36F8FEE
:100260000D480047FEE7FEE7FEE7FEE7FEE7FEE794
:10027000FEE7FEE7FEE7FEE708480949094A0A4BA0
:100280007047000040050008000000200800002022
:100290006806002088ED00E0890100086800002061
:1002A000680600206802002068020020704770473E
:1002B0007047754600F02CF8AE4605006946534677
:1002C00020F00700854618B020B5FFF7D5FFBDE840
:1002D00020404FF000064FF000074FF000084FF0AD
:1002E000000B21F00701AC46ACE8C009ACE8C0093E
:1002F000ACE8C009ACE8C0098D46704710B50446AB
:10030000AFF300802046BDE81040FFF786BF000035
:10031000004870470800002001491820ABBEFEE7E6
:1003200026000200704700005E49096821F00701BD
:100330005C4A11601146096841F0020111605A4996
:10034000096841F48071584A116000BF5649096834
:1003500001F480610029F9D010205349496821F047
:10036000F851514A51601146496841EA00615160B3
:100370001146096821F08071116000BF4A4909687F
:1003800001F00071B1F1007FF8D04749C96821F050
:100390000301454AD1601146C96841F00201D160AC
:1003A0001146C96821F4FE4141F4A051D1601146C3
:1003B000C96821F0700141F01001D1601146C9688F
:1003C00021F0C061D1601146C96841F08071D160EF
:1003D0001146096841F08071116000BF3249096817
:1003E00001F000710029F9D02F49896821F003013B
:1003F0002D4A91601146896841F00301916000BF68
:100400002949896801F00C010C29F9D1264989682C
:1004100021F0F001244A91601146896821F4E061DD
:1004200091601146896821F4605191601146096814
:1004300021F08061116000BF1B49096801F08061F3
:10044000B1F1806FF8D01849096921F4FE41164ACC
:1004500011611146096941F4C051116111460969E0
:1004600041F4003111611146096941F48031116193
:100470001146096841F08061116000BF0A490968AE
:1004800001F080610029F9D007498831096821F419
:100490004001054AC2F888101146096E41F4001166
:1004A0001166704700200240001002404FF090405B
:1004B0000069C0B2704700000B48C06C40F00100FA
:1004C0000949C8644FF0904000686FF30B004FF08B
:1004D000904108600846C06840F6A80108434FF004
:1004E0009041C8607047000000100240FFF71CFFF9
:1004F000FFF7E2FF00BFFFF7D9FF044908600020C3
:1005000000E0401C02498842F5DAFAE700000020CA
:1005100040420F004FF04070E1EE100A70470000BB
:10052000400500080000002008000000C401000889
:10053000480500080800002060060000E0010008EF
:0805400000000000102700007C
:040000050800018965
:00000001FF
