:020000040800F2
:10000000900C00202503000861030008630300082A
:10001000650300086703000869030008000000008A
:100020000000000000000000000000006B0300085A
:100030006D030008000000006F0300087103000852
:1000400073030008730300087303000873030008B8
:1000500073030008730300087303000873030008A8
:100060007303000873030008730300087303000898
:100070007303000873030008730300087303000888
:100080007303000873030008730300087303000878
:100090007303000873030008730300087303000868
:1000A0007303000873030008730300087303000858
:1000B0007303000873030008730300087303000848
:1000C0007303000873030008730300087303000838
:1000D0007303000873030008730300087303000828
:1000E0007303000873030008730300087303000818
:1000F0007303000873030008730300087303000808
:1001000073030008730300087303000873030008F7
:1001100073030008730300087303000873030008E7
:1001200073030008730300087303000873030008D7
:1001300073030008730300087303000873030008C7
:1001400073030008730300087303000873030008B7
:1001500073030008730300087303000873030008A7
:100160007303000873030008730300087303000897
:100170007303000873030008730300080000000005
:10018000730300087303000800F002F800F0BAF8E7
:100190000AA090E8000C82448344AAF10107DA45E2
:1001A00001D100F0AFF8AFF2090EBAE80F0013F07A
:1001B000010F18BFFB1A43F001031847D0330000AA
:1001C000F033000010F8013B0A4413F0030408BFA9
:1001D00010F8014B1D1108BF10F8015B641E05D01B
:1001E00010F8016B641E01F8016BF9D1002D15D0D8
:1001F00010F8014B03F00C030C2BA1EB04040ABF15
:1002000010F8013BA4EB8314A4EB032405F10103D4
:1002100014F8016B5B1E01F8016BF9D5914238BFF0
:1002200010F8013BD1D3704700230024002500269D
:10023000103A28BF78C1FBD8520728BF30C148BF49
:100240000B6070476E2900F08C83702900F0F184F8
:10025000662903F0D280652903F0CF80672903F077
:10026000CC80612903F0CB8003681B0A28BF41F0D2
:100270008001692900F02281642900F01F8175291D
:1002800000F01C816F2900F07E84782900F0BD8485
:10029000E92900F01984E42900F01684F52900F01A
:1002A0001384EF2900F07B84F82900F0BC840368F4
:1002B000DB0928BF41F08001632900F09683732990
:1002C00000F09B83E32901F00081F32901F005810F
:1002D000002070471FB503F08BF89DE8030000F085
:1002E00051FA01F09DF904000020002103F054F8B8
:1002F000401C60600020002103F064F8E0601FBD36
:1003000010B510BD01F067F91146FFF7E3FF02F0E9
:1003100033FD01F049FA03B4FFF7F2FF03BC01F02B
:1003200079FA000016481749174B99423CBF50F81C
:10033000042B41F8042BF8D314494FF000028B42F0
:1003400038BF43F8042BFAD3DFF84400016841F4C6
:1003500070010160BFF34F8FBFF36F8F0D480047EF
:10036000FEE7FEE7FEE7FEE7FEE7FEE7FEE7FEE765
:10037000FEE7FEE708480949094A0A4B70470000B2
:10038000D83600080000002030060020900C002025
:1003900088ED00E08901000890060020900C002004
:1003A000900800209008002070B5064600F0CAF9B9
:1003B000056806F10B0020F00704B4429CBF002042
:1003C00070BD2B466A68BAB11068A04210D304F120
:1003D000080188423CBF5068586007D35168101923
:1003E00041601168091B016058601460101D70BDE8
:1003F00013465268002AE7D12146284600F0AEF99C
:100400000028DED170BD00007CB51D4616460C00EC
:10041000009001D02044401E074B7B442A46694689
:100420000190304600F0B7FA05461CB1002069463D
:1004300000F0C4FA28467CBDA90500000FB41CB525
:10044000084B06AA7B4469460090059800F0A3FA81
:1004500004460020694600F0B1FA20461CBC5DF855
:1004600014FB00007505000070B50C460546012A16
:1004700005D02878800600D5EA69002302E0012330
:1004800005E05B1C934202D2E05C0028F9D1A86928
:10049000E618C01AA861286A18442862284600F0A5
:1004A000CEF904E0D5E9012114F8010B9047B442DC
:1004B000F8D3284600F0D9F970BD00002DE9F041CD
:1004C0000646002410687529314616A510D000F0A4
:1004D000DDF9002802DA404213A507E031688A07F7
:1004E00001D512A502E0490704D511A5012401E0B8
:1004F00000F0D5F900210A2206F1240709E0B0FB3B
:10050000F2FCB0FBF2F302FB1C00303078541846CA
:10051000491C0028F3D123462A463046BDE8F04165
:1005200000F0C6B9000000002D0000002B00000004
:10053000200000002DE9F05F894604464FF0000AD4
:10054000DFF874B1FB44C0F820A02046E16888477A
:10055000002874D0252806D0D4E901219047206ACC
:10056000401C2062F1E700265F462046E16888478C
:100570002028054607DB312D05D2781910F8200C0C
:1005800008B10643F1E7B00701D526F00406C4F828
:100590001CA00027C4F818A02A2D09D0284602F074
:1005A0002DF838B304EB8708303DC8F8185019E02F
:1005B00059F8041B204604EB87029161E1688847E3
:1005C000012F054618D1E069002820DA26F0200620
:1005D0001DE0D8F8180000EB800005EB4000303833
:1005E000C8F818002046E1688847054602F006F87A
:1005F0000028EED1012F0AD02E2D08D12046E16827
:1006000088477F1C0546022F46F02006C4DBA06900
:10061000002803DA404246F00106A061F00701D04D
:1006200026F010066C2D0BD0682D09D04C2D39D03A
:100630006A2D35D0742D35D07A2D33D016E038E0C0
:10064000E1682F4620468847B842054609D16C2FFD
:1006500026D04FF48060E16806432046884705466F
:1006600004E06C2F1AD04FF4807006430DB3A5F14F
:100670004100192802D8203546F400664A4629462A
:10068000204626604E46FFF7DDFD80B101280BD0E5
:10069000F61D26F0070000F1080956E74020E4E7C0
:1006A0008020D8E70020D6E706F104094DE7284668
:1006B00052E7206A00F002B8BA2E000030BCBDE854
:1006C000C09F70B5064600F041F804680546304604
:1006D0000A22002100F0B8FA2C6070BD10B5431E4C
:1006E00013F8014F002CFBD105E011F8014B002C51
:1006F00003F8014B03D0521EF7D20021197010BD30
:1007000010B5431C02E010F8011B71B18107FAD14A
:100710004FF0013202C88C1A8C4314EAC211F9D08E
:10072000C01A0A0603D0C01E10BDC01A10BD0A04AC
:1007300001D0801E10BD0902FCD0401E10BD7047C4
:1007400070477047004870473806002000487047DF
:1007500030060020704770477047704738B5044630
:100760000A4600206946AFF30080002808BF38BD64
:1007700002460099204600F0ABFA012038BD012066
:1007800000F021BFF8B5AFF30080054600200C460D
:10079000102000BF0646A819A0420DD9324669466E
:1007A0000020AFF30080070008BF00F00CFF0098A6
:1007B000A04218BF0546C419FFF7C4FF05600746ED
:1007C000F01D20F007004619284600F00AF8B44250
:1007D00008BFF8BDA21B31463868BDE8F84000F0FC
:1007E00077BA00210160C0E90110704710207047FE
:1007F00070B50446051FFFF7A5FF0068002C14BF65
:10080000446870BD002C18BFAC423CBF20466468F1
:10081000F8D301680A18AA4218BF456003D12A68B4
:1008200005461144016028684119A1421CBF6C6053
:1008300070BD6168696021680844286070BD70B54A
:10084000044685690068C10601D5302600E02026EF
:10085000C00707D070BDD4E9012130469047206A17
:10086000401C20626D1EF6D570BD70B504468569CA
:100870000078C00707D170BDD4E90121202090473E
:10088000206A401C20626D1EF6D570BD09684A05BD
:1008900001D540B27047C905FCD500B27047096860
:1008A0004A0501D5C0B27047C905FCD580B2704772
:1008B0002DE9F0470D4699469246044600F124087A
:1008C0000168880604D5E06921F01001216000E08C
:1008D0000120A84201DD471B00E00027A1697A1929
:1008E00002EB0900081AA0612078C00602D4204655
:1008F000FFF7A5FF002608E0D4E901211AF8060059
:100900009047206A401C761C20624E45F4DB20781C
:10091000C0060AD52046FFF792FF06E0D4E9012180
:1009200030209047206A401C2062381EA7F1010742
:10093000F4DC07E0D4E9012118F805009047206AAB
:10094000401C2062281EA5F10105F3DC2046FFF7BC
:100950008CFF2078000602D50220BDE8F087012038
:10096000FBE711680268006A530501D508700AE0C8
:10097000D30501D5088006E0130603D5C217C1E9E7
:10098000000200E0086001207047000001694A1C75
:1009900002610878704700B58FB0CDE901310021C0
:1009A000059105497944CDE9031011466846FFF7E2
:1009B000C1FD0FB000BD0000E5FFFFFF0A6802F8AF
:1009C000010B0A607047D1E900239A4202D2531CFE
:1009D0000B601070704710B5436913B1AFF300801E
:1009E00001E0FFF741FD012010BD127800F1240164
:1009F0000A7000224A700122EDE711684FF0FF32C1
:100A0000E9E700002DE9FF5F15468A460446DFF856
:100A1000AC80F8440027D8E900103E46CDE900102C
:100A200010E03AF816106A4602A800F0ACFD411C2E
:100A300007D02178890603D5E269391891420DD88B
:100A40000744761C2078800602D5E069B84205DDAF
:100A5000AE42E6DB3AF816000028E2D1A069C01BDE
:100A6000A0612046FFF7EBFED8E90010CDE90010A9
:100A7000002017E03AF818106A4602A800F083FD3B
:100A8000B0F1FF3F81460BD000250DF1080B05E0CA
:100A9000D4E901211BF8050090476D1C4D45F7D3A3
:100AA00008F10100B0428046E4DB206A384420624D
:100AB0002046FFF7DAFE00F003B80000FE29000030
:100AC0003FBCBDE8C09F00002DE9F0418046D21D2B
:100AD00022F007020025D2E90002F52915A614D05C
:100AE000011E72F1000106DA0023D0EB030063EB74
:100AF000020211A608E0D8F800108B0701D50FA656
:100B000002E0490701D50EA601251146002408F18F
:100B1000240704E000F0F6F830323A55641C50EA3D
:100B20000102F7D12B46324621464046BDE8F0414E
:100B3000FFF7BEBE000000002D0000002B000000EB
:100B40002000000030B4002100F1240408E002F08D
:100B50000705D208303542EA4372DB086554491C68
:100B600052EA0305F3D10468002310A2250707D534
:100B7000A40600D421B1C46901230DA2641EC4617E
:100B800030BCFFF795BE10B5044621461068FFF74C
:100B900086FE02462046BDE810400023D2E7D21D63
:100BA00022F00701D1E90023CCE70000000000009B
:100BB00030000000F0B40D460188090502D5214C33
:100BC0007C4402E01F4C7C440E34002100F12406DA
:100BD00008E002F00F071209E75D42EA03721B0901
:100BE0007754491C52EA0307F3D102780023120715
:100BF00004D5702D06D009B1022311342246F0BC71
:100C0000FFF756BE01231034F8E770B504460D46D1
:100C100021461068FFF743FE024629462046BDE8FC
:100C200070400023C6E7D21D22F00703D3E900235A
:100C3000C0E70368126843F0200303600823C36120
:100C40000023B7E7582800002DE9F04791460F46EA
:100C500080460446002614F8015B2DB100F030F800
:100C60000068405DC007F6D12B2D02D02D2D18D085
:100C7000641E4A463946204600F033FC27B13968E5
:100C8000A14201D1C7F800804FF0020471050BD5D5
:100C90004042002803DDFFF759FD0460A007BDE8CE
:100CA000F08746F48066E4E70028F8DAFFF74EFDA7
:100CB00004606FF00040F2E7004870473006002003
:100CC00010B500F0ADFC001D10BD00BFCD2600002A
:100CD000034640688C46002818BF88423CBF034644
:100CE0004068F8D318681844884207D00CF1030014
:100CF00020F00700001D411A521A0146081D0A6023
:100D0000FFF776BD30B5B0F10A024FEA900E71F1EF
:100D100000034EEA817EB0EB0E0061EB91014FEAD9
:100D2000101E4EEA017E10EB0E0041EB11114FEA4E
:100D3000102E4EEA016E10EB0E0041EB11214FEA2E
:100D4000104E4EEA014E10EB0E0041EB11414018DF
:100D500041F100014FEAD00040EA41704FEAD10171
:100D600010EB80054FEA810444EA907444EB0104DF
:100D70006D1944EB0404521BA3414FF0000348BF1C
:100D80000A3200D530BD401C41F1000130BD704732
:100D90002DE9FF4F0C461E464FF0FF378BB0D2E9CE
:100DA0000001DDF860800A908A46C1F30A5505B952
:100DB0003D46002108464FF00000BAF1000F00F454
:100DC000400005DA00EB80004FF4400101EA5000DA
:100DD0004FEA9059B9F1010F00DDB9460A9850EA7F
:100DE0004A000ED044F61050A5F2FF3545432F14AB
:100DF000B8F1000F1ED07542291E1EDDC9F1000298
:100E00001CE0B8F1010F4FF0000001D0302103E0E9
:100E1000F24305E02154401CB042FBDB3046002287
:100E2000002121540B99C1F80880C1E900200FB0BE
:100E300000F0BCB9BD1B6D1CDEE74A4600DA694212
:100E400006A800F03FFC06AB93E8070003AB83E87D
:100E5000070050460A9900F044FD8DE80700A0F510
:100E600000501F3800900398002D0ADD42F21F0148
:100E70004A460844002303A90390684600F0ADFFEA
:100E800009E0A0F500504A461F38002303A903904B
:100E9000684600F0B7FF8DE807000004000C03D09F
:100EA0004FF0FF30410800E01046B8F1000F03D0CA
:100EB0000022009215461EE0751E05D4FFF722FFA2
:100EC000303262556D1EF9D5B3460122084302D077
:100ED00000227F1C04E02078302801D100227F1EF0
:100EE000002A099784D01DE0112D07DAFFF70AFFC9
:100EF000303262556D1C50EA0102F5D1084302D030
:100F00000098C8B10EE00021681E05E0235C625C19
:100F100063542254401E491C8142F7DBAB46A81B98
:100F2000401E0990002004F80B000B98099AC0F8A5
:100F30000880C0E9002B7AE711264FF0000857E738
:100F40002DE9F04F88460446D21D22F0070191B0EA
:100F5000D1E90001CDE90A0101F038FB02460B9806
:100F6000C00F01D02D2007E02068810701D52B207C
:100F700002E0202101EAC000032A099001D0072ADB
:100F800005DB03464146204600F04EFB0BE120788E
:100F9000800601D5E06900E00620B8F1650F8146C2
:100FA00006D0B8F1660F18D0B8F1670F70D131E0F4
:100FB0000020B9F1110F009001DB112301E009F1CC
:100FC00001030AAA01A90CA8FFF7E2FEDDE90C70F3
:100FD000002609F10105834647E001204B460090B9
:100FE0004FF000470AAA01A90CA8FFF7D1FEDDE9DE
:100FF0000DB00C995D46002610B909F101000D18DD
:10100000B9EB050003D4C0F1FF3609F10105A5EBEA
:1010100009002BE0B9F1010F01DA4FF001090020BE
:10102000B9F1110F0090484601DD112300E003469D
:101030000AAA01A90CA8FFF7ABFEDDE90C704D462A
:1010400000268346207800070AD4AB4500DA5D46C7
:1010500001A8012D04DD411911F8011C302907D028
:101060004F4502DA17F1040F04DA012082460FE03F
:101070006D1EEEE7002F02DCED1B3E4403E0781C02
:10108000A84200DD7D1CB81B00F1010A4FF00047AB
:101090002078000703D4AA4501DB4FF0FF3A002176
:1010A000B7F1004F0DF143088DF8431024D0022012
:1010B0002B23002F01DA7F422D230A21021EA0F1EB
:1010C000010000DC5FB197FBF1FC97FBF1F201FB43
:1010D0001C7C17460CF1300C08F801CDEEE7A8F1A6
:1010E000010003702188090501D5452100E0652133
:1010F000A0F1010800F8011C09980FA9A1EB08074D
:10110000FF1D00B10120411901EBEA70A1693844CB
:10111000081A401EA0612078C00602D42046FFF7BE
:101120008EFB099828B1D4E901219047206A401C20
:1011300020622078C00622D52046FFF780FB1EE003
:10114000002E04DBB34502DD01A8805D00E0302005
:10115000D4E901219047206A401C2062761CAAF144
:1011600001005FEA000A0AD100F05AFAC06801687B
:10117000405CD4E901219047206A401C2062281E6F
:10118000A5F10105DCDC07E0D4E9012118F8010B29
:101190009047206A401C2062381EA7F10107F3DC4B
:1011A0002046FFF762FB032011B041E630BCBDE8EA
:1011B000C08F00002DE9F04F04460D46D21D22F0ED
:1011C000070089B0D0E900974846394601F0FEF99A
:1011D0000246F80F01D02D2307E02068810701D5D2
:1011E0002B2302E0202101EAC0038DF820300BB14F
:1011F000012000E00020032A824601D0072A04DBF8
:101200002946204600F010FA3FE12078800601D4FC
:101210000D2500E0E569C7F30A560D2D49DA0021D6
:101220004FEA175B08464FF00000002F00F4400023
:1012300007DA00EB80004FF4400100EBD07001EAC8
:1012400060008115012901DD4FF0FF3100224FEAD6
:10125000850CBCF1180F06D31346ACF118004FF003
:101260008052C24003E04FF4801323FA0CF30CF1D8
:101270000C0CBCF1200F04D3ACF1200C09FA0CF0DB
:1012800001E007FA0CF000294FF0004801DD18B921
:101290000FE00ED140450CD319EB02095F4121B993
:1012A000404502D19F4329EA0209BBEB175F00D0FA
:1012B000761C2088000502D57B48784402E07A48F5
:1012C0007844193808AA302302F80A30037C0AF15E
:1012D0000101002E0AF1020A53546A4602DC4FF063
:1012E000300101E04FF031014FF001088DF800109E
:1012F00002D0A6F2FF3603E059EA470100D06B4E58
:10130000002D02DC2178090704D54FF002082E21B8
:101310008DF80110C44600210BE0C7F303433F01E1
:10132000C35C491C6D1E02F80830052908F101084C
:1013300001DA002DF1DC00210CE000EB1973491CEF
:101340001B786D1E082902F808304FEA091908F1C8
:10135000010801DA002DF0DC21688B0602D516E0C9
:10136000A8F10108E04505DD02EB080313F8013C94
:10137000302BF5D0B8F1000F09DD02EB080313F8AC
:10138000013C2E2B03D1090701D4A8F10108002D3F
:1013900005DD3E2102F808106D1E08F10108407CB1
:1013A000002E02F8080008F1010804DA2D20764228
:1013B00002F8080002E02B2002F808000A214FF48E
:1013C0007A70864208F101080BDB96FBF0F33033AC
:1013D00002F8083096FBF0F308F1010800FB1366F1
:1013E00001E0642E0CDB642096FBF0F3303302F84E
:1013F000083096FBF0F308F1010800FB136601E0EA
:101400000A2E06DB96FBF1F0303002F8080008F1F6
:10141000010896FBF1F001FB1060303002F8080083
:10142000A16908F1010808EB050202EB0A00081A9D
:10143000A0612078C00602D42046FFF700FA216A96
:1014400008AE01EB0A00206204E0D4E9012116F89D
:10145000010B9047BAF1010AF7D22078C00602D5F5
:101460002046FFF7ECF96E4609E016F8010B3E281E
:101470000FD0D4E901219047206A401C2062B8F1C6
:101480000108F2D22046FFF7F0F909B0032000F07E
:101490000FB8206A2844206203E0D4E901213020FB
:1014A00090476D1EEBD3F8E79921000002FCFFFF87
:1014B00030BCBDE8C08F10B5436913B1AFF30080F5
:1014C00001E0FFF79FFA012010BD128800F124010E
:1014D00082840022C2840122EDE711684FF0FF32BE
:1014E000E9E72DE9F05F824615468B4600270AF1B1
:1014F0000104B9460078302801D09DB113E014F8FA
:10150000010B0127782803D0582801D045B10AE003
:101510000DB1102D07D1002714F8010B102502E0A2
:10152000082500E00A250026B0460EE005FB08006D
:1015300005FB06F101271FFA80F801EB1046B6F50E
:10154000803F00D3B94614F8010B294600F0ACF8EF
:101550000028EBDABBF1000F05D00FB1641E00E0EC
:101560005446CBF80040B9F1000F06D0FFF7EEF873
:1015700002210160C81E00F003B848EA0640FAE7FD
:1015800030BCBDE8C09F70B516460C460546FFF757
:1015900097FB036893F80101012806D0FF2C0FD8B0
:1015A000185D68B101202C7070BDD3F80701324678
:1015B000214603F2071303442846BDE8704018474C
:1015C0004FF0FF3070BD10B500F0FCF8BDE81040E2
:1015D00000F0F3B870477546FFF76EFBAE460500A6
:1015E0006946534620F00700854618B020B5FEF73F
:1015F000C1FEBDE820404FF000064FF000074FF05D
:1016000000084FF0000B21F00701AC46ACE8C00920
:10161000ACE8C009ACE8C009ACE8C0098D46704729
:1016200000487047500600202DE9F0411F4604464F
:1016300003260168072A01F4006004DB08B116A53F
:1016400005E016A503E008B115A500E015A521F0F9
:1016500010002060A069C01EA0610FB1401EA061F3
:101660002046FFF7ECF84FB1D4E901213846904706
:10167000206A401C2062C01C206206E0206AFAE753
:10168000D4E9012115F8010B9047761EF8D22046C7
:10169000FFF7EBF8BDE8F0814E414E006E616E0041
:1016A000494E4600696E66003A2800D2303820F074
:1016B0002002412A01D3A2F13700884201D34FF022
:1016C000FF3070472DE9F047814616468AB035480D
:1016D00078440DC88DE80D0032487844801C03AC76
:1016E0000DC884E80D0041F69B300844372190FB7B
:1016F000F1F290FBF1F5A5F1800501FB12041B3C12
:1017000002D56442012000E00020DFF898A0804666
:101710000027FA44AAF1BE0A0EE0E0070AD03246DA
:10172000684607EB470101230AEB810100F06AFBE1
:101730008DE8070064107F1C002CEED1194F7F4408
:10174000AE3F19E0E80715D007EB04100DF1180AB9
:1017500090E80E008AE80E00C068F04201D19819A6
:1017600008903246012306A903A800F04BFB03AB07
:1017700083E807006D10641C002DE3D14FF00103D6
:1017800032466946B8F1000F03A802D000F025FBED
:1017900001E000F037FBC9E90001C9F808200AB0F0
:1017A000BDE8F087141E000010B50446AFF30080BA
:1017B0002046BDE81040FEF7AEBD002801D000F085
:1017C00029B8704710B5012805D0002103A000F00A
:1017D00027F8012010BD09A1F8E70000534947523E
:1017E000544D454D3A204F7574206F6620686561F1
:1017F00070206D656D6F7279000000003A204865B9
:101800006170206D656D6F727920636F7272757093
:101810007465640001491820ABBEFEE72600020093
:1018200070B505460C460A2000E06D1C00F052F829
:1018300035B128780028F8D102E0641C00F04AF89D
:1018400014B120780028F8D1BDE870400A2000F0DB
:1018500041B800004FF0013C50F8042B51F8043B14
:101860009A4221D1A2EB0C03934313EACC1317D174
:1018700050F8042B51F8043B9A4215D1A2EB0C030B
:10188000934313EACC130BD150F8042B51F8043BCB
:101890009A4209D1A2EB0C03934313EACC13DBD099
:1018A0004FF00000704700BFD01A01BAB1FA81F1C1
:1018B00001F0180122FA01F0CB40C1F12001DBB2A6
:1018C000C0B2C01A2CFA01F3D11A914311EAC31124
:1018D000E6D1704708B569468DF800000320ABBE1D
:1018E00008BD5FEA400C08BF91F0000F4FEA8C235F
:1018F0004FEAC12243EA51514FEA1C5018BF00F58C
:10190000F0404FEA300018BF41F000415FEA6C5CE4
:1019100000F02980BCF1FF3F08BF40F080407047D5
:10192000130C06BF12044FF0100C4FF0000C130EF6
:1019300004BF12020CF1080C130F04BF12010CF1CA
:10194000040C930F04BF92000CF1020CD30F04BFE0
:1019500052000CF1010C11464FF00002A0F11F00E3
:10196000A0EB0C00704711F0004F08BF704731F03A
:1019700000413FF4D5AF0B0C06BF09044FF0100C2B
:101980004FF0000C0B0E04BF09020CF1080C0B0FFA
:1019900004BF09010CF1040C8B0F04BF89000CF18A
:1019A000020CCB0F04BF49000CF1010CCCF1200359
:1019B000A0EB0C0022FA03F302FA0CF241EA030155
:1019C00000F10100704720F07F4C80EA030023F013
:1019D0007F47ACEB070303F57C5300F0004003F1B5
:1019E000FF032DE980494FEA154B09B44FEA144330
:1019F00025EA0B4E24EA03480FF2042606EB1327D0
:101A000049083E785FEA320203FB0667C7F5000724
:101A100007FB06F64FEA54374FEAD64606F10206B0
:101A200007FB066CCCF1005C4FEA1C472CEA074C24
:101A300007FB06F40CFB06F504EB15464FEA961679
:101A400034BF00204FF000404FEAD13706FB07FCBF
:101A50004FEA1C4C0CFB0BF7D21B03FB0CF761EBA2
:101A600007010CFB0EF7B0EB074072EB17420CFBC3
:101A700008F734BFA2EB0742B2EB074261EB174114
:101A80004FEA0C444FEA910706FB07FC4FEA1C4C57
:101A90000CFB0BF7B0EBC74072EB573203FB0CF7B4
:101AA00034BFA2EBC742B2EBC74261EB57310CFB2C
:101AB0000EF7B0EBC70072EB57720CFB08F734BFA0
:101AC000A2EBC702B2EBC70261EB5771039F4FEA6B
:101AD000816141EA921104EBCC044FEAD1374FEA1D
:101AE000826206FB07FC42EA90124FEA80604FEAEE
:101AF0001C4C0CFB0BF7D21B03FB0CF761EB070133
:101B00000CFB0EF7B0EB074072EB17420CFB08F72B
:101B100034BFA2EB0742B2EB074261EB17414FEA39
:101B20008C554FEA910704EB9C2406FB07FC4FEA17
:101B30001C4C0CFB0BF7B0EBC74072EB573203FBAE
:101B40000CF734BFA2EBC742B2EBC74261EB57318F
:101B50000CFB0EF7B0EBC70072EB57720CFB08F7EB
:101B600034BFA2EBC702B2EBC70261EB577115EBB2
:101B70004C254FEA816141EA92114FEA82624FEAB5
:101B8000D13742EA901206FB07FC44F100044FEA09
:101B900080604FEA1C4C0CFB0BF7D21B03FB0CF7CD
:101BA00061EB07010CFB0EF7B0EB074072EB17423D
:101BB0000CFB08F734BFA2EB0742B2EB074261EB24
:101BC000174115EB1C154FEA813141EA92414FEA6A
:101BD000823242EA90424FEA80304FEA0C7644F17A
:101BE000000448EA03434EEA0B484FF0000EB2EB04
:101BF000080C71EB030724BF624639464EEB0E0E0C
:101C00004FF0000B0018524149414BEB0B0BB2EB6C
:101C1000080C71EB03077BF1000B24BF62463946C9
:101C20004EEB0E0E4FF0000B0018524149414BEBAA
:101C30000B0BB2EB080C71EB03077BF1000B24BF1D
:101C4000624639464EEB0E0E51EA020718BF46F0C7
:101C5000010616EB0E7655F1000254F1000103D592
:101C6000BDE88901BDE80088BDE88901BDE80048FC
:101C7000B619524141EB0101A3F101037047808085
:101C80007F7E7D7C7B7A79787776767574737271D6
:101C900071706F6E6E6D6C6C6B6A6A69686867668E
:101CA00066656464636362616160605F5F5E5E5D20
:101CB0005D5C5C5B5B5A5A59595858575756565594
:101CC00055555454535352525251515050504F4FF6
:101CD0004F4E4E4D4D4D4C4C4C4B4B4B4A4A4A4946
:101CE0004949484848474747474646464545454489
:101CF0004444444343434342424242414141002B16
:101D00009C4630D477002BD01CB54FEA370703B47C
:101D10004FF010004FF01001BAF1000F06D0BCF1E7
:101D2000000FDCBF40F0080040F008014FF0000059
:101D30000FBCBDE810400BF1010BBBF1010F08BF58
:101D40005FEA170722BF12F1010211F101014FF002
:101D5000004143F1000300F0004043EA00007047F7
:101D6000F9D35708D0E746EA064613F1400F4FEA89
:101D700016461FDD13F1200FDFBF16430A46002170
:101D800020335B42BED0C3F1200746EA064602FA82
:101D900007F74FEA164646EA0706C3F1200722FA7C
:101DA00003F201FA07F721FA03F14FF0000342EAC8
:101DB0000702A7E746EA020646EA06464FEA164643
:101DC00046EA0106BCBF46EA0646360C4FF0000361
:101DD0004FF000024FF0000194E72DE9804C9A4645
:101DE000934670B491E8380007C831EA400C48BF08
:101DF00034EA430C03D5FFF7E6FDFFF780FFF0BCA4
:101E0000BDE8008C2DE9804C9A46934670B491E869
:101E1000380007C810F0804F08BF13F0804F03D17F
:101E200000F005F8FFF76BFFF0BCBDE8008C20F078
:101E30007F4780EA030023F07F4C07EB0C03A3F5F8
:101E40007C5300F00040A3F1FE0392F0000F00F07D
:101E5000B38095F0000F00F077802DE901494FEA3B
:101E600011404FEA144621EA004800FB06FC24EA30
:101E7000064708FB06F607FB08F800FB07F718EB18
:101E800006484CEB164C4FEA124B18EB07484FEA4A
:101E900015464CEB174022EA0B4E0BFB06FC25EADD
:101EA00006470EFB06F607FB0EFE0BFB07F71EEBC5
:101EB000064E4CEB164C4FF000061EEB074E4CEB5B
:101EC000174B18EB0B0840F1000018EB0E0B58EB0A
:101ED000000840F100008F1A4FF000013CBFC943D9
:101EE000661B14BFB5EB040C00213CBFC943F61BB5
:101EF0004FEA17444EEA8E0E27EA04454FEA1C4784
:101F000004FB07622CEA074C05FB07F70CFB05F600
:101F100004FB0CFC16EB074642EB174216EB0C4693
:101F200042EB1C421BEB060658EB0202414146EA1B
:101F30009E0601D5BDE80189B619524141EB010168
:101F4000A3F10103BDE801894FEA14454FEA1147A7
:101F500024EA054621EA074C05FB07F406FB07F7D0
:101F60000CFB06F105FB0CFC11EB074144EB17449D
:101F70004FEA124711EB0C4144EB1C4422EA074C98
:101F800005FB07F206FB07F70CFB06F605FB0CFC4E
:101F900016EB074642EB174216EB0C4642EB1C458C
:101FA0006A1854F1000148BF7047B619524141EB1D
:101FB0000101A3F10103704795F0000F37D04FEAFC
:101FC00011424FEA144721EA024624EA074C02FB79
:101FD00007F106FB07F70CFB06F402FB0CFC14EB05
:101FE000074441EB17414FEA154714EB0C4441EB12
:101FF0001C4125EA074C02FB07F506FB07F70CFB23
:1020000006F602FB0CFC16EB074645EB174516EBF4
:102010000C4645EB1C42121951F1000148BF7047B4
:10202000B619524141EB0101A3F1010370474FEA98
:1020300014454FEA114724EA054621EA074C05FBFF
:1020400007F106FB07F70CFB06F24FF0000605FB55
:102050000CFC12EB074241EB174112EB0C4251EB27
:102060001C4148BF7047921841EB0101A3F10103E5
:102070007047000000214FF0E022116110494143F8
:102080005161002191611146096941F0040111611A
:102090001146096921F0020111611146096941F0F7
:1020A0000101116100BF4FF0E021096901F48031A5
:1020B0000029F8D000214FF0E022116170470000A4
:1020C00000350C0000B54948C06C40F0100047498D
:1020D000C8640A2028E046490968430003229A4060
:1020E0009143434A116011460968430001229A4016
:1020F00011433F4A116011468968430003229A4008
:1021000091433B4A916011468968430003229A40FB
:102110001143374A91601146C968430003229A402F
:102120009143334AD160401C1028D4DB30484069C9
:1021300040F400602E4948610846406920F4704030
:1021400040F4405048610846406920F4006048610E
:102150000520FFF78FFF2648406940F400602449BE
:1021600048610846406920F4704040F4405048619E
:102170000846406920F4006048610120FFF77AFFBB
:102180001B48406940F400601949486108464069AD
:1021900020F4704040F4405048610846406920F403
:1021A000006048610846406940F4006048610846A4
:1021B000406920F4704040F400504861084640698E
:1021C00020F4006048610220FFF754FF202000F057
:1021D0001BF8082000F018F800F00CF8062000F0BA
:1021E00013F80C2000F010F800BD000000100240B1
:1021F0000010004800B5012000F006F80020014959
:10220000087000BD0000002000B503461748406973
:1022100020F40060154948610846406920F4806058
:1022200048610846406940F40060486119090F4858
:10223000406961F30F300D4948610846406920F458
:10224000006048610846406940F400604861084603
:10225000406963F30F3048610846406920F400602C
:1022600048610120FFF706FF00BD00000010004894
:1022700000B503461748406920F4006015494861DD
:102280000846406940F4806048610846406940F46F
:102290000060486119090F48406961F30F300D492A
:1022A00048610846406920F400604861084640697A
:1022B00040F4006048610846406963F30F304861AC
:1022C0000846406920F4006048610120FFF7D2FE13
:1022D00000BD00000010004800B50220FFF794FF89
:1022E00000BD0FB400B597B019A81690512101A8F0
:1022F000169B189AFEF788F80020169001A800F0A7
:102300003FF817B05DF814FB10B504460A2C2FD126
:102310001A480078032805DB002018490870FFF7E9
:10232000DBFF10BD1548007840B9C020FFF76CFFF7
:1023300012480078401C11490870F2E70F480078F5
:10234000012808D19420FFF75FFF0C480078401C5B
:102350000A490870E5E70948007802280BD1D42023
:10236000FFF752FF05480078401C04490870D8E781
:102370002046FFF77DFF00BFD3E7000000000020EC
:1023800010B5044603E014F8010BFFF7BDFF2078F9
:102390000028F8D110BD00005E49096821F007014E
:1023A0005C4A11601146096841F0020111605A4906
:1023B000096841F48071584A116000BF56490968A4
:1023C00001F480610029F9D010205349496821F0B7
:1023D000F851514A51601146496841EA0061516023
:1023E0001146096821F08071116000BF4A490968EF
:1023F00001F00071B1F1007FF8D04749C96821F0C0
:102400000301454AD1601146C96841F00201D1601B
:102410001146C96821F4FE4141F4A051D160114632
:10242000C96821F0700141F01001D1601146C968FE
:1024300021F0C061D1601146C96841F08071D1605E
:102440001146096841F08071116000BF3249096886
:1024500001F000710029F9D02F49896821F00301AA
:102460002D4A91601146896841F00301916000BFD7
:102470002949896801F00C010C29F9D1264989689C
:1024800021F0F001244A91601146896821F4E0614D
:1024900091601146896821F4605191601146096884
:1024A00021F08061116000BF1B49096801F0806163
:1024B000B1F1806FF8D01849096921F4FE41164A3C
:1024C00011611146096941F4C05111611146096950
:1024D00041F4003111611146096941F48031116103
:1024E0001146096841F08061116000BF0A4909681E
:1024F00001F080610029F9D007498831096821F489
:102500004001054AC2F888101146096E41F40011D5
:1025100011667047002002400010024070B5054669
:102520000E4600240FE000BF0F48006800F0800056
:102530000028F9D0285D0C490C3108804FF49670C2
:1025400000F014F8641CB442EDD300BF06480068E4
:1025500000F040000028F9D00348006820F0400057
:102560000149086070BD00001C44004064224243E1
:102570000723B2FBF3F100BF4A1E111EFCD17047C6
:10258000014600BFC86900F020000028FAD0888CFE
:10259000C0B27047F8B506460C46002512E00A485E
:1025A000FFF7EEFF00909DF800000D2800D1F8BD68
:1025B000012269463046FEF791F86D1CA54200D114
:1025C000F5E700BFEBE700000044004003B40198CA
:1025D0004100009850EAC12018BF04204A0D18BFDE
:1025E00040F0010040F2FF72B2EB515F08BF40F0D3
:1025F0000200012808BF052002B0704730380A28C1
:1026000001D20120704700207047000010B5184823
:10261000FEF776F8044621461548FFF77FFF154878
:102620000068092821D2DFE800F005080B0E11141C
:10263000171A1D0000F0BCF817E000F025FA14E0AE
:1026400000F00AF911E000F0CBF90EE000F014F808
:102650000BE000F0D3FA08E000F0A4FB05E000F086
:10266000DFFC02E000F05CFC00BF00BF10BD00001A
:10267000040000202C06002070B52020FDF794FEF9
:1026800005462748FEF73CF8064631462448FFF742
:1026900045FF2448FFF774FF0446312C1AD1172157
:1026A00021A0FFF73BFF142125A0FFF737FFFFF71D
:1026B000A1FD2848FEF724F8064631462548FFF7D5
:1026C0002DFF2548FFF70DFE002000E0401C2349A8
:1026D0008842FBD3322C18D1182121A0FFF71EFF0E
:1026E00046212548FFF71AFF20212846FFF752FF11
:1026F000182122A0FFF712FF2846FFF7F2FD002065
:1027000000E0401C15498842FBD3332C06D1182128
:1027100020A0FFF703FF00202449086070BD0000DF
:10272000EB020020004400406F7074696F6E20312E
:102730002073656C65637465640D0A0D0A00000002
:10274000536565204C43442053637265656E0D0AE2
:102750000D0A0000ED0000204835000800E1F505F5
:102760006F7074696F6E20322073656C6563746579
:10277000640D0A0D0A0000000035000844697370FA
:102780006C6179696E67206D6573736167650D0AA9
:102790000D0A00006F7074696F6E20332073656CD2
:1027A00065637465640D0A0D0A0000002C060020A4
:1027B00070B51448FDF7A4FF054629461148FFF7F8
:1027C000ADFE1148FFF7DCFE0446312C06D118217E
:1027D0000EA0FFF7A3FE012012490860322C06D19B
:1027E000182111A0FFF79AFE02200E490860332C31
:1027F00006D1182112A0FFF791FE042009490860B4
:1028000070BD00006B000020004400406F707469D0
:102810006F6E20312073656C65637465640D0A0DFD
:102820000A0000002C0600206F7074696F6E203261
:102830002073656C65637465640D0A0D0A00000001
:102840006F7074696F6E20332073656C6563746597
:10285000640D0A0D0A00000070B52548FDF750FF11
:10286000054629462248FFF759FE2248FFF788FE11
:102870000446312C06D118211FA0FFF74FFE072078
:1028800023490860322C07D1182122A0FFF746FE09
:10289000202126A0FFF742FE332C06D118212BA0C1
:1028A000FFF73CFE03201A490860342C0DD1182193
:1028B0002CA0FFF733FE302130A0FFF72FFE0020C1
:1028C00000E0401C39498842FBD3352C06D1182141
:1028D00037A0FFF723FE08200D490860362C06D1EB
:1028E000182139A0FFF71AFE00200949086070BDC1
:1028F0000D010020004400406F7074696F6E20313C
:102900002073656C65637465640D0A0D0A00000030
:102910002C0600206F7074696F6E20322073656C16
:1029200065637465640D0A0D0A00000050726573DA
:1029300073204C696D6974205377697463682054FF
:102940006F20546573740D0A0D0A00006F7074696E
:102950006F6E20332073656C65637465640D0A0DBA
:102960000A0000006F7074696F6E20342073656C0C
:1029700065637465640D0A0D0A0000004C65667499
:10298000204D6F746F722053706565643A2020206B
:1029900020205269676874204D6F746F72205370E5
:1029A0006565643A200D0A0D0A00000000E1F50596
:1029B0006F7074696F6E20352073656C6563746524
:1029C000640D0A0D0A0000006F7074696F6E203686
:1029D0002073656C65637465640D0A0D0A00000060
:1029E00070B51448FDF78CFE054629461148FFF7DF
:1029F00095FD1148FFF7C4FD0446312C06D118217E
:102A00000EA0FFF78BFD052012490860322C06D17D
:102A100006201049086018210FA0FFF77FFD332C16
:102A200006D1182112A0FFF779FD0220094908609C
:102A300070BD0000C4010020004400406F70746944
:102A40006F6E20312073656C65637465640D0A0DCB
:102A50000A0000002C0600206F7074696F6E20322F
:102A60002073656C65637465640D0A0D0A000000CF
:102A70006F7074696F6E20352073656C6563746563
:102A8000640D0A0D0A000000F0B591B02020FDF79A
:102A90008BFC05462448FDF733FE0746394622489D
:102AA000FFF73CFD2148FFF76BFD0446312C1BD19D
:102AB00018211FA0FFF732FD402123A0FFF72EFDB4
:102AC00020212846FFF766FD2A462FA101A8FDF721
:102AD000B5FC0646314601A8FFF720FD002000E0C6
:102AE000401C2D498842FBD3322C07D118212BA042
:102AF000FFF714FD14212FA0FFF710FD332C07D191
:102B0000182131A0FFF70AFD14212AA0FFF706FDC6
:102B1000342C06D1182132A0FFF700FD00203649E1
:102B2000086011B0F0BD00005002002000440040D9
:102B30006F7074696F6E20312073656C65637465A6
:102B4000640D0A0D0A000000456E7465722054651C
:102B5000787420546F2053656E64286D617820333B
:102B600032206368617261637465727329205468EE
:102B7000656E20507265737320456E7465723A20DD
:102B80000D0A0D0A0000000053656E64696E673A15
:102B90002025730A0D0A0D0000E1F5056F707469B8
:102BA0006F6E20322073656C65637465640D0A0D69
:102BB0000A000000506C61636520486F6C646572A8
:102BC0000D0A0D0A000000006F7074696F6E2033EB
:102BD0002073656C65637465640D0A0D0A0000005E
:102BE0006F7074696F6E20342073656C65637465F3
:102BF000640D0A0D0A0000002C060020F0B589B013
:102C00000320FDF7D1FB06462D48FDF779FD074669
:102C100039462B48FFF782FC2A48FFF7B1FC0446EF
:102C2000312C1FD1182128A0FFF778FC18212CA0E7
:102C3000FFF774FC03213046FFF7ACFC3046FDF78C
:102C400040FD07463A462CA101A8FDF7F7FB0546D3
:102C5000294601A8FFF762FC002000E0401C2F4934
:102C60008842FBD3322C1FD118212DA0FFF756FC30
:102C700018211BA0FFF752FC03213046FFF78AFC06
:102C80003046FDF71EFD07463A462BA101A8FDF789
:102C9000D5FB0546294601A8FFF740FC002000E0CF
:102CA000401C1E498842FBD3332C06D118212BA08F
:102CB000FFF734FC03202F49086009B0F0BD000085
:102CC00074030020004400406F7074696F6E2031FF
:102CD0002073656C65637465640D0A0D0A0000005D
:102CE000456E7465722044757479204379636C6510
:102CF0003A0D0A0D0A00000052756E6E696E67206B
:102D00004D6F746F7220466F7277617264732041E9
:102D10007420256425250D0A0D0A000000E1F50543
:102D20006F7074696F6E20322073656C65637465B3
:102D3000640D0A0D0A00000052756E6E696E672000
:102D40004D6F746F72204261636B776172647320A0
:102D5000417420256425250D0A0D0A006F707469E1
:102D60006F6E20332073656C65637465640D0A0DA6
:102D70000A0000002C060020FFF70EFBFFF7A2F967
:102D8000FFF738FA00F06AFA09E0FFF73FFC00208D
:102D900000E0401C02498842FBD3FFF72BFAF4E71E
:102DA00080969800F0B589B00320FDF7FDFA06463D
:102DB0002D48FDF7A5FC074639462B48FFF7AEFB2B
:102DC0002A48FFF7DDFB0446312C1FD1182128A02B
:102DD000FFF7A4FB18212CA0FFF7A0FB032130462E
:102DE000FFF7D8FB3046FDF76CFC07463A462CA1AE
:102DF00001A8FDF723FB0546294601A8FFF78EFB36
:102E0000002000E0401C2F498842FBD3322C1FD108
:102E100018212DA0FFF782FB18211BA0FFF77EFBD6
:102E200003213046FFF7B6FB3046FDF74AFC074664
:102E30003A462BA101A8FDF701FB0546294601A84A
:102E4000FFF76CFB002000E0401C1E498842FBD3CA
:102E5000332C06D118212BA0FFF760FB03202F494C
:102E6000086009B0F0BD00000004002000440040EC
:102E70006F7074696F6E20312073656C6563746563
:102E8000640D0A0D0A000000456E746572204475D9
:102E90007479204379636C653A0D0A0D0A000000CD
:102EA00052756E6E696E67204D6F746F7220466F3B
:102EB00072776172647320417420256425250D0AA0
:102EC0000D0A000000E1F5056F7074696F6E203225
:102ED0002073656C65637465640D0A0D0A0000005B
:102EE00052756E6E696E67204D6F746F722042610D
:102EF000636B776172647320417420256425250D0E
:102F00000A0D0A006F7074696F6E20332073656C50
:102F100065637465640D0A0D0A0000002C0600202C
:102F2000F0B589B00320FDF73FFA06461C48FDF7CF
:102F3000E7FB074639461A48FFF7F0FA1948FFF74A
:102F40001FFB0446312C1FD1182117A0FFF7E6FA0A
:102F500020211BA0FFF7E2FA03213046FFF71AFBFE
:102F60003046FDF7AEFB07463A461DA101A8FDF726
:102F700065FA0546294601A8FFF7D0FA002000E0CF
:102F8000401C1F498842FBD3322C06D118211DA0BA
:102F9000FFF7C4FA02202149086009B0F0BD000023
:102FA000AD050020004400406F7074696F6E2031E1
:102FB0002073656C65637465640D0A0D0A0000007A
:102FC000456E74657220506F736974696F6E284422
:102FD000656772656573293A0D0A0D0A00000000E5
:102FE0004D6F76696E67204D6F746F7220546F203D
:102FF000256420446567726565730D0A0D0A00003B
:1030000000E1F5056F7074696F6E20322073656C96
:1030100065637465640D0A0D0A0000002C0600202B
:103020002DE9F04188B00320FDF7BEF907463C4882
:10303000FDF766FB054629463948FFF76FFA394820
:10304000FFF79EFA0446312C07D1182136A0FFF76E
:1030500065FA20213AA0FFF761FA322C1FD118211E
:103060003FA0FFF75BFA202143A0FFF757FA0321A7
:103070003846FFF78FFA3846FDF723FB05462A4608
:1030800045A16846FDF7DAF9064631466846FFF77E
:1030900045FA002000E0401C47498842FBD3332C0E
:1030A00027D1182145A0FFF739FA4A48FDF728FB38
:1030B000804641464748FFF731FA1A48FFF760FA61
:1030C0000546312D06D1192143A0FFF727FA072025
:1030D00047490860322D06D1192146A0FFF71EFA94
:1030E000072043490860332D02D10720404908607A
:1030F00000BF342C07D1182144A0FFF70FFA20217C
:1031000048A0FFF70BFA352C06D118214DA0FFF788
:1031100005FA03203649086008B0BDE8F0810000D8
:103120008C040020004400406F7074696F6E203181
:103130002073656C65637465640D0A0D0A000000F8
:1031400053656E64696E6720537465707065722094
:103150004D6F746F7220486F6D650D0A0D0A000087
:103160006F7074696F6E20322073656C656374656F
:10317000640D0A0D0A000000456E74657220506FE0
:10318000736974696F6E2844656772656573293A5F
:103190000D0A0D0A000000004D6F76696E67204D24
:1031A0006F746F7220546F202564204465677265C8
:1031B00065730D0A0D0A000000E1F5056F70746972
:1031C0006F6E20332073656C65637465640D0A0D42
:1031D0000A0000003305002048616C6620537465C6
:1031E000702053656C65637465640D0A0D0A0000F8
:1031F0002C06002046756C6C205374657020536556
:103200006C65637465640D0A0D0A00006F70746963
:103210006F6E20342073656C65637465640D0A0DF0
:103220000A0000005374657070657220506F7369F6
:1032300074696F6E2844656772656573293A0D0A73
:103240000D0A00006F7074696F6E20352073656C15
:1032500065637465640D0A0D0A00000000B52E4810
:10326000806D40F400302C4988652B488830006818
:1032700020F00C00C1F888000846D0F8880040F023
:103280000400C1F8880000F04DF82448006820F0E0
:103290000100224908600846006820F010200860FC
:1032A0000846006820F400400860081D006820F40B
:1032B0004050091D086042F28D0018490C31086029
:1032C0001648006840F00C0014490860134820308C
:1032D000006840F040001149203108601048006843
:1032E00040F0C0000E4908600C48006840F0010042
:1032F0000A49086000BF09481C30006800F400104B
:103300000028F8D000BF05481C30006800F4800099
:103310000028F8D000BD000000100240004400402A
:10332000083801401A48C06C40F008001849C864C9
:103330001848006820F47050164908600846006874
:1033400040F42050086013482030006840F0EE60E0
:103350001049203108600F480830006840F4705070
:103360000C4908310860081D006820F47050091DE0
:1033700008600846006840F4A05008600548001D39
:10338000006820F060000349091D086070470000D4
:1033900000100240000C004810B500290AD008783F
:1033A000002807D005487844FEF754FA002801D0D9
:1033B000002010BD0248784410BD00000602000045
:1033C000FE01000010B500290AD00878002807D0B7
:1033D00005487844FEF73EFA002801D0002010BDD1
:1033E0000248784410BD0000EA020000E20200003A
:1033F0004FF04070E1EE100A7047FDF7A1BDFDF7F8
:10340000D9BE040000080000000000000002000116
:1034100000001000000000000000000030313233D6
:1034200034353637383941424344454640305800F8
:10343000303132333435363738396162636465662A
:1034400040307800303132333435363738396162C4
:10345000636465667870003031323334353637381E
:1034600039414243444546585000000002400000A4
:10347000000000A00000000005400000000000C89F
:10348000000000000C4000000000409C0000000014
:10349000194000000020BCBE0000000034400000C5
:1034A000BFC91B8E00000004B5400000504BCFD0B8
:1034B0006607E2CF010000006C4100003E8251AA85
:1034C000DFEEA73401000000D9420000DCB5A0E225
:1034D0003A301F97FFFFFFFFB4450000FD25A0C84D
:1034E000E9A3C14FFFFFFFFFFF3F00000000008086
:1034F00000000000FF3F000000000080000000000E
:1035000054797065207465787420746F20646973D1
:10351000706C617920286D61782033322063686196
:1035200072732920616E6420707265737320656EFA
:1035300074657220746F20646973706C617920699E
:10354000743A0D0A0000000054657374696E6720B8
:103550004C696E6520310A2054657374696E67206A
:103560004C696E6520320A202054657374696E6759
:10357000204C696E6520330A2020205465737469DD
:103580006E67204C696E652034000000D836000854
:103590000000002030060000C401000800390008C7
:1035A000300600206006000028020008100100001C
:1035B00043000000F8FFFFFF004040404040404013
:1035C00040404141414141404040404040404040F6
:1035D000404040404040404040050202020202029A
:1035E00002020202020202020220202020202020E9
:1035F00020202002020202020202909090909090FD
:1036000010101010101010101010101010101010BA
:10361000101010100202020202028888888888882E
:10362000080808080808080808080808080808081A
:103630000808080802020202400000000000000022
:10364000000000000000000000000000000000007A
:10365000000000000000000000000000000000006A
:10366000000000000000000000000000000000005A
:10367000000000000000000000000000000000004A
:10368000000000000000000000000000000000003A
:10369000000000000000000000000000000000002A
:1036A000000000000000000000000000000000001A
:1036B0000000000000000000000000001C000000EE
:1036C00043000000F8FFFFFF0C0000000E000000A8
:1036D0000F0000002E000000120001122A01301419
:1036E000204D4342205465737420536F6674776194
:1036F00072652001211C330A0D22500C477261654E
:103700006D65204A7564671DE12250174275696C2A
:103710006420447461653A2030342F32372F3230C0
:103720003230225167B00A61696E204D656E752096
:103730000141671014506C6561736520656E746596
:10374000722061206E756D620920073120746F2030
:10375000330570297069636B20616E206F70746926
:103760006F6E3A0A0D31295253323332204D6F6455
:10377000756C650A0D32294D6F746F7210500633E7
:10378000294C43440E200F0D0A00446973706C618C
:1037900079696E67201831EF10074D6573736167A3
:1037A0001E112041A23142511C81A8011FA2021505
:1037B00036A210065374657070D0319A21A3140597
:1037C0004C696D6967200877697463686573A52023
:1037D00005447269769531BD100B0D0A3429456E8A
:1037E000636F64652E60083529536572766F3D14EA
:1037F00005362942610387546F48755951F9167689
:10380000A4826EBB05375980054C656674B470059B
:10381000526967680F823386C52C6543459505302C
:10382000430615344349981404656E64BA218E2901
:10383000A825303405526563653A25EA24044563BA
:1038400068281664CB4234A10611742795F8A98420
:103850000538273404696E650125DA5960695475A5
:103860002A0113897560052C240516B01C04466FC7
:1038700072B6031A6450323275510DE5ACB9216944
:103880003C95DEA9F401738CBD2F03818E0D1F7F43
:10389000030A1535C83C04486F6D190419AE240598
:1038A000506F7369302D180430045365746B100623
:1038B0000A0D3429470C511C0006266F6E0D0A357F
:1038C000A719930005296C656374A50D166D032C6B
:1038D0000548616C661B04AC0546756C6C60037D25
:1038E0003C04A17A8D1104052BAD0E1632A0048183
:1038F000FE6A6E3D0D11DC031D4103210100000035
:040000050800018965
:00000001FF
