:020000040800F2
:10000000600600200D020008490200084B020008AB
:100010004D0200084F0200085102000800000000D5
:100020000000000000000000000000005302000873
:10003000550200080000000057020008590200089D
:100040005B0200085B0200085B0200085B0200081C
:100050005B0200085B0200085B0200085B0200080C
:100060005B0200085B0200085B0200085B020008FC
:100070005B0200085B0200085B0200085B020008EC
:100080005B0200085B0200085B0200085B020008DC
:100090005B0200085B0200085B0200085B020008CC
:1000A0005B0200085B0200085B0200085B020008BC
:1000B0005B0200085B0200085B0200085B020008AC
:1000C0005B0200085B0200085B0200085B0200089C
:1000D0005B0200085B0200085B0200085B0200088C
:1000E0005B0200085B0200085B0200085B0200087C
:1000F0005B0200085B0200085B0200085B0200086C
:100100005B0200085B0200085B0200085B0200085B
:100110005B0200085B0200085B0200085B0200084B
:100120005B0200085B0200085B0200085B0200083B
:100130005B0200085B0200085B0200085B0200082B
:100140005B0200085B0200085B0200085B0200081B
:100150005B0200085B0200085B0200085B0200080B
:100160005B0200085B0200085B0200085B020008FB
:100170005B0200085B0200085B0200080000000050
:100180005B0200085B02000800F002F800F02EF8A5
:100190000AA090E8000C82448344AAF10107DA45E2
:1001A00001D100F023F8AFF2090EBAE80F0013F006
:1001B000010F18BFFB1A43F001031847D4030000D6
:1001C000E40300000023002400250026103A28BF85
:1001D00078C1FBD8520728BF30C148BF0B607047B9
:1001E0001FB500F0CFF91FBD10B510BD00F053F8DA
:1001F0001146FFF7F5FF00F0ADF900F071F803B418
:10020000FFF7F2FF03BC00F079F800001648174929
:10021000174B99423CBF50F8042B41F8042BF8D3FC
:1002200014494FF000028B4238BF43F8042BFAD335
:10023000DFF84400016841F470010160BFF34F8FA3
:10024000BFF36F8F0D480047FEE7FEE7FEE7FEE7CE
:10025000FEE7FEE7FEE7FEE7FEE7FEE7084809499E
:10026000094A0A4B70470000A00500080000002062
:10027000000000206006002088ED00E089010008F1
:100280006000002060060020600200206002002064
:10029000704770477047754600F02CF8AE46050071
:1002A0006946534620F00700854618B020B5FFF791
:1002B000D5FFBDE820404FF000064FF000074FF09B
:1002C00000084FF0000B21F00701AC46ACE8C00974
:1002D000ACE8C009ACE8C009ACE8C0098D4670477D
:1002E00010B50446AFF300802046BDE81040FFF78C
:1002F00086BF000000487047000000200149182018
:10030000ABBEFEE7260002007047000003484069CC
:1003100080F4807001494861704700000010004877
:100320002348C06C40F012002149C8646FF03000CF
:10033000204908600846006840F0100008601D4829
:100340000830006820F030001A490831086008467B
:10035000006840F030000860081F006820F00400CA
:10036000091F086013480C30006820F03000114964
:100370000C3108606FF440300F490860084600688F
:1003800040F4803008600846806820F4403088607F
:100390000846806840F4403088600846406820F491
:1003A000807048600846C06820F44030C8607047DC
:1003B0000010024000040048001000480348006894
:1003C00080F00400014908607047000014040048F0
:1003D0005E49096821F007015C4A1160114609680D
:1003E00041F0020111605A49096841F48071584A8C
:1003F000116000BF5649096801F480610029F9D0F5
:1004000010205349496821F0F851514A5160114672
:10041000496841EA006151601146096821F0807124
:10042000116000BF4A49096801F00071B1F1007F15
:10043000F8D04749C96821F00301454AD160114607
:10044000C96841F00201D1601146C96821F4FE413A
:1004500041F4A051D1601146C96821F0700141F00A
:100460001001D1601146C96821F0C061D160114608
:10047000C96841F08071D1601146096841F080710E
:10048000116000BF3249096801F000710029F9D0FC
:100490002F49896821F003012D4A9160114689682E
:1004A00041F00301916000BF2949896801F00C0106
:1004B0000C29F9D12649896821F0F001244A91607C
:1004C0001146896821F4E06191601146896821F440
:1004D000605191601146096821F08061116000BF90
:1004E0001B49096801F08061B1F1806FF8D01849AB
:1004F000096921F4FE41164A11611146096941F466
:10050000C05111611146096941F400311161114670
:10051000096941F4803111611146096841F0806137
:10052000116000BF0A49096801F080610029F9D013
:1005300007498831096821F44001054AC2F888104A
:100540001146096E41F40011116670470020024007
:1005500000100240FFF73CFFFFF7E2FE00BFFFF78D
:100560002DFF002000E0401C05498842FBD3FFF727
:10057000CDFE002000E0401C01498842EFD2FAE79E
:10058000809698004FF04070E1EE100A704700002E
:10059000A00500080000002060060000C40100085B
:040000050800018965
:00000001FF
